:020000020000FC
:1000000055C0189518951895189518951895189520
:10001000189518951895189518950CC01895189559
:100020001895189518951895189518951895189568
:10003000189518950F930FB70F931F93F09806B16B
:1000400003FF04C0F09A299A2A9A03C005B1097FD8
:1000500005B903B100FB002703F916B110270BB156
:1000600013FB07F915FB06F90BB9132F022F889420
:100070001795079588941795079510938700009317
:10008000860088941795079510938900009388003F
:1000900010938B0000938A0000917A000064009313
:1000A0007A001F910F910FBF0F91189514E00FEF79
:1000B0001EBF0DBF222407E005B906E004B908E21F
:1000C00008B900E007B901E000937E0000E00BB939
:1000D00000EC0AB91EE400E210938700009386004A
:1000E00017E200E1109389000093880010938B00C1
:1000F00000938A0002E0009380000CE100938100ED
:1001000001E000936F0000E600937C0007E8009395
:100110007A0000E000937B0000917A000064009375
:100120007A0000917A0006FDFCCF00917A0000640D
:1001300000937A007894000000000000B19B03C097
:100140002A982998B19A00917A0004FF0DC0209155
:100150007800309179002430320508F424E00091D1
:0A0160007A00006100937A00E6CFF8
:00000001FF
